:020000040800F2
:10000000E0040020010100082D250008CB20000895
:100010002925000839050008152B000800000000FC
:100020000000000000000000000000005D25000846
:100030003D05000800000000312500085F2500088C
:100040001B0100081B0100081B0100081B01000820
:100050001B0100081B0100081B0100081B01000810
:100060001B0100081B0100081B0100081B01000800
:100070001B0100081B0100081B0100081B010008F0
:100080001B0100081B0100083D0400081B010008BB
:100090001B0100081B0100081B0100081B010008D0
:1000A0001B0100081B0100081B0100081B010008C0
:1000B0001B0100081B010008000000001B010008D4
:1000C0001B01000800000000000000001B010008E8
:1000D000000000001B010008052B000800000000C4
:1000E0001B0100081B0100081B010008DFF80CD0F1
:1000F00000F082F900480047C12B0008E00400200E
:100100000648804706480047FEE7FEE7FEE7FEE7B1
:10011000FEE7FEE7FEE7FEE7FEE7FEE7EB25000869
:10012000ED000008202A04DB203A21FA02F0002129
:10013000704721FA02F3D040C2F1200291400843F7
:1001400019467047D2B201E000F8012B491EFBD2DC
:1001500070470022F6E710B513460A4604461946D2
:10016000FFF7F0FF204610BD2DE9FE4F81EA0304A2
:1001700004F0004421F0004100944FF0000B23F004
:10018000004350EA01045ED052EA03045BD0C3F39B
:100190000A54C1F30A552C44A4F2F3340194A0FB91
:1001A0000254C1F3130141F48011C3F3130343F468
:1001B000801301FB024400FB034E840A970A44EAC1
:1001C000815447EA8357A4FB076802958D0A05FB13
:1001D00007854FEA932C04FB0C542705029D4FEA38
:1001E000065847EA1637B5EB08056EEB070C870E85
:1001F000920E47EA811742EA8312A7FB0201B6EB8F
:100200000B0164EB00042B0D43EA0C335E1844EB46
:100210001C50DA465146E7FB0201C5F313044FEACE
:100220000B3343EA14534FEA0432019C43EA0603BA
:10023000A4F10C040294009CCDE900B400F08DF808
:1002400003B0BDE8F08F00200146F9E70EB5C10FFD
:1002500080EAE0700844CA07002140F233438DE889
:100260000E000A460B4600F078F803B000BD20F0FF
:100270000040C10DC0F3160040F400007F2901DAF0
:1002800000207047962903DCC1F19601C8407047F1
:1002900096398840704701F0004330B421F00041A6
:1002A00050EA010206D00A0DA2F56072C1F31301F3
:1002B000002A02DC30BC00207047440F44EAC1042D
:1002C000C100E01830BC00EBC250AFF30080002941
:1002D000A8BF7047401C490008BF20F001007047CC
:1002E00010B4B0FA80FC00FA0CF050EA010404BF2C
:1002F00010BC704749B1CCF1200421FA04F411FA82
:100300000CF118BF012121430843A3EB0C01CB1DC5
:100310004FEA00614FEA102042BF002010BC704736
:1003200000EBC35010440029A4BF10BC7047401C10
:10033000490008BF20F0010010BC704710B5141E22
:1003400073F1000408DA401C41F1000192185B418E
:100350001A4301D120F0010010BD2DE9F04D924665
:100360009B4611B1B1FA81F202E0B0FA80F220327C
:10037000904600F053F804460F4640EA0A0041EA6E
:100380000B0153465A46084313D0114653EA010065
:1003900019D0C8F140025046FFF7C4FE05460E468C
:1003A00050465946424600F039F8084305D001202E
:1003B00004E020463946BDE8F08D0020054346EABA
:1003C000E0762C4337430A986305E40AA0EB080063
:1003D0000022FD0A44EA47540A3002D500200146B3
:1003E000E9E7010510196941DDE90845001969418E
:1003F000BDE8F04DA2E70000064C074D06E0E068BE
:1004000040F0010394E8070098471034AC42F6D35B
:10041000FFF770FEE02C0008002D0008202A04DB06
:10042000203A00FA02F1002070479140C2F1200307
:1004300020FA03F3194390407047000010B50248BA
:1004400000F037F910BD00002400002070B504460C
:1004500000252068806800F0010018B320688068DB
:1004600020F001002168886000F054FD054613E08B
:1004700000F050FD401B02280ED92068806800F073
:10048000010048B1A06A40F01000A062E06A40F0AC
:100490000100E062012070BD2068806800F001006A
:1004A0000028E5D10020F6E738B5044600250020F5
:1004B00000902068806800F0010078BB20688068A8
:1004C00040F0010021688860194800681949B0FBB4
:1004D000F1F0009002E00098401E00900098002883
:1004E000F9D100F017FD054619E000F013FD401B9F
:1004F000022814D92068806800F0010078B9A06A49
:1005000040F01000A062E06A40F00100E06200BF2D
:10051000002084F8240000BF012038BD05E02068D9
:10052000806800F001000028DFD00020F5E700001F
:100530001400002040420F0000BFFEE7704772B673
:1005400000BFFEE77047000038B5024600230020D8
:10055000009000BF92F82400012801D1022038BD8C
:10056000012082F8240000BF4868072812D21068D2
:10057000406B0C79641E04EB84051F24AC40A0433F
:100580000D796D1E05EB85050C68AC4020431468A1
:10059000606327E048680D2812D21068006B0C7960
:1005A000E41F04EB84051F24AC40A0430D79ED1F2C
:1005B00005EB85050C68AC4020431468206311E00E
:1005C0001068C06A0C790D3C04EB84051F24AC4014
:1005D000A0430D790D3D05EB85050C68AC4020432B
:1005E0001468E06208680A2812D31068C0680C78A2
:1005F0000A3C04EB44050724AC40A0430D780A3DB7
:1006000005EB45058C68AC4020431468E0600FE0C2
:10061000106800690C7804EB44050724AC40A04343
:100620000D7805EB45058C68AC40204314682061CB
:100630000868102802D00868112827D1174C1068C4
:10064000A0421ED11068806800F40000F0B9106864
:10065000806840F400001468A0600868102815D174
:100660000F4800680F4CB0FBF4F000EB8000400036
:10067000009002E00098401E009000980028F9D1F8
:1006800004E0906A40F020009062012300BF002047
:1006900082F8240000BF184661E7000000240140F2
:1006A0001400002040420F00704701460868C06CEB
:1006B000704710B504462068406800F020002028EC
:1006C0002FD12068006800F00200022829D1A06A1A
:1006D00000F0100018B9A06A40F40070A062206811
:1006E000806800F46020B0F5602F13D1207B88B9BA
:1006F0002068406820F0200021684860A06A20F44B
:100700008070A062A06A00F4805018B9A06A40F01E
:100710000100A0622046FFF7C7FF6FF012002168BA
:1007200008602068406800F0800080283BD1206885
:10073000006800F00400042835D1A06A00F0100021
:1007400018B9A06A40F40050A0622068806800F4E4
:10075000E040B0F5E04F0DD02068406800F48060C4
:10076000D0B92068806800F46020B0F5602F13D104
:10077000207B88B92068406820F0800021684860AC
:10078000A06A20F48050A062A06A00F4807018B9BA
:10079000A06A40F00100A0622046FFF7D3FE6FF090
:1007A0000C00216808602068406800F04000402884
:1007B0000FD12068006800F0010050B1A06A40F439
:1007C0008030A062204600F0A7F86FF00100216899
:1007D000086010BD2DE9F0410446002700250026E1
:1007E000A84614B90120BDE8F081A06810B1207DB1
:1007F00000B100BFA06A30B90020E06284F8240094
:10080000204600F08BF82046FFF720FE0746A06A3E
:1008100000F01000002873D1002F71D1A06A20F4DD
:10082000885040F00200A062E16960680843217BC3
:1008300040EA41000643A068B0F5807F02D0A0687E
:10084000012802D14FF4807000E000200543207D94
:10085000012811D1207B38B9A069401E4FF40061F6
:1008600041EA4030054307E0A06A40F02000A06262
:10087000E06A40F00100E0622068406820F46940CE
:100880002843216848602068806821490840304337
:1008900021688860A068B0F5807F02D0A068012838
:1008A00002D14FF4807000E00020B0F5807F03D1CA
:1008B000208A401E4FEA00582068C06A20F4700069
:1008C00040EA08002168C862206880681149084031
:1008D000B04208D10020E062A06A20F0020040F09F
:1008E0000100A06211E0A06A20F0020040F01000B8
:1008F000A062E06A40F00100E062012705E0FFE746
:10090000A06A40F01000A062012738466BE70000A3
:10091000FDF7E1FFFE0E1FFF7047000010B586B027
:100920000446002002900390049005901849206826
:1009300088422AD100BF1748806940F400701549E9
:1009400088610846806900F40070019000BF00BF14
:1009500000BF0846806940F0100088610846806941
:1009600000F01000019000BF00BF022002900320A1
:10097000039002A9084800F041F900220121122049
:1009800000F04EFB122000F03BFB06B010BD000053
:1009900000240140001002400010014070B50446E0
:1009A000002500BF94F82400012801D1022070BD69
:1009B000012084F8240000BF2046FFF775FD05469E
:1009C000002D77D1A06A40F20121884340F4807065
:1009D000A0623C492068884208D13B48006800F486
:1009E000702008B9012002E0002000E0012078B169
:1009F000A06A20F48010A0622068406800F4806043
:100A000000B3A06A20F4005040F48050A06219E0C6
:100A1000A06A40F48010A0622B49091F2068884218
:100A200003D028492068884204D12748006800F490
:100A3000806000E0002028B1A06A20F4005040F45B
:100A40008050A062A06A00F4805020B1E06A20F0DB
:100A50000600E06201E00020E06200BF002084F8B0
:100A6000240000BFC01E216808602068806800F470
:100A70006020B0F5602F16D112492068884208D155
:100A80001148006800F4702008B9012002E000203D
:100A900000E0012038B12068806840F4A00021689F
:100AA00088600CE006E02068806840F480102168CF
:100AB000886004E000BF002084F8240000BF2846BE
:100AC00075E700000028014004240140014600228F
:100AD00091F82100022808D00420886300BF00207C
:100AE00081F8200000BF012070470868006820F0EE
:100AF0000E000B6818600868006820F001000B68A1
:100B0000186091F8403001209840CB6B586001206C
:100B100081F8210000BF002081F8200000BF1046AE
:100B2000E2E7000070B50446002594F82100022891
:100B300003D00420A063012548E02068006820F06D
:100B40000E00216808602068006820F0010021681C
:100B500008601F492068884201D1012026E01C4915
:100B600014312068884201D110201FE01849283133
:100B70002068884201D1801518E015493C31206871
:100B8000884201D1801411E0114950312068884217
:100B900002D14FF4803009E00D4964312068884269
:100BA00002D14FF4801001E04FF0807008490839FD
:100BB0004860012084F8210000BF002084F8200054
:100BC00000BF606B10B12046616B8847284670BD3E
:100BD0000800024070B5044600F09CF90646254620
:100BE000681C10B104480078054400BF00F092F979
:100BF000801BA842FAD370BD100000202DE9F847F1
:100C000003460022944666E14FF0010808FA02F418
:100C1000D1F8008008EA0400A0427DD1DFF8CCA220
:100C2000D1F80480A8EB0A09D0453AD014DCB8F119
:100C3000030F50D009DCB8F1000F31D0B8F1010F2B
:100C40001CD0B8F1020F49D120E0B8F1110F18D033
:100C5000B8F1120F42D11EE0B9F5881F25D006DC8D
:100C6000B9F5803F20D0B9F5801F37D11AE0B9F52A
:100C7000001F18D0B9F5041F30D117E0D1F80CC00F
:100C80002DE0D1F80C8008F1040C28E0D1F80C809C
:100C900008F1080C23E0D1F80C8008F10C0C1EE0E0
:100CA00000BF00BF00BF00BF00BF00BFD1F8088079
:100CB000B8F1000F02D14FF0040C0BE0D1F808801E
:100CC000B8F1010F03D14FF0080C1C6102E04FF0A6
:100CD000080C5C6103E04FF0000C00E000BF00BFB7
:100CE000FF2801D8984601E003F104084646FF2892
:100CF00002D84FEA820803E0A2F108084FEA880808
:100D00004746D6F800804FF00F0909FA07F928EA9C
:100D100009080CFA07F900E085E048EA0908C6F876
:100D20000080D1F8048008F08058B8F1805F7AD153
:100D300000BFDFF8BC81D8F8188048F00108DFF860
:100D4000B091C9F81880C846D8F8188008F0010892
:100D5000CDF8008000BF00BF4FEAB9384FEA9209D2
:100D600058F829504FEA82784FEA18794FF00F0867
:100D700008FA09F825EA0805DFF87881434502D129
:100D80004FF000080FE0DFF87081434502D14FF0CB
:100D9000010808E0DFF86481434502D14FF0020802
:100DA00001E04FF003084FEA82794FEA197908FA17
:100DB00009F848EA0505DFF848814FEA920948F842
:100DC0002950D1F8048008F48038B8F5803F0AD162
:100DD000DFF83081D8F8008048EA0008DFF8249175
:100DE000C9F8008009E0DFF81C81D8F8008028EA03
:100DF0000008DFF81091C9F80080D1F8048008F4E9
:100E00000038B8F5003F0FD1DFF8F88008F104088A
:100E1000D8F8008048EA0008DFF8E89009F10409F2
:100E2000C9F800800EE055E0DFF8D88008F104082A
:100E3000D8F8008028EA0008DFF8C89009F1040912
:100E4000C9F80080D1F8048008F48018B8F5801F34
:100E50000ED1DFF8B08008F10808D8F8008048EA21
:100E60000008DFF8A09009F10809C9F800800DE03A
:100E7000DFF8908008F10808D8F8008028EA000818
:100E8000DFF8809009F10809C9F80080D1F80480E2
:100E900008F40018B8F5001F0ED1DFF8688008F1DB
:100EA0000C08D8F8008048EA0008DFF8589009F1EB
:100EB0000C09C9F800800DE0DFF8488008F10C0843
:100EC000D8F8008028EA0008DFF8389009F10C090A
:100ED000C9F80080521CD1F8008028FA02F8B8F155
:100EE000000F7FF491AEBDE8F887000000001110FC
:100EF0000010024000080140000C014000100140B9
:100F000008000140000401400AB1016101E00B0446
:100F10000361704701480068704700000800002026
:100F2000034800680349097808440149086070478C
:100F3000080000201000002010B50848006840F0AC
:100F4000100006490860032000F0A8F80F2000F008
:100F500007F800F02BF8002010BD00000020024030
:100F600070B504460E4800784FF47A71B1FBF0F08A
:100F70000C490968B1FBF0F5284600F0A3FC08B164
:100F8000012070BD102C07D200222146501E00F017
:100F900047F80548046001E00120F2E70020F0E78F
:100FA00010000020140000200C00002008B500BF35
:100FB0001148806940F001000F4988610846806946
:100FC00000F00100009000BF00BF00BF0846C069EC
:100FD00040F08050C8610846C06900F08050009021
:100FE00000BF00BF00BF0549486820F0E06040F046
:100FF0000070486000BF08BD0010024000000140C2
:1010000001460846002809DB00F01F0301229A4030
:1010100043099B0003F1E023C3F8002100BF7047A0
:101020002DE9F05F80460D461646002701F07CFD55
:10103000074639462A46334601F00700C0F1070A41
:10104000BAF1040F02D94FF0040A01E0C0F1070A17
:10105000D14600F1040ABAF1070F02D24FF0000A9C
:1010600001E0A0F1030AD4464FF0010A0AFA09FA96
:10107000AAF1010A0AEA020A0AFA0CFA4FF0010B75
:101080000BFA0CFBABF1010B0BEA030B4AEA0B0466
:101090002146404601F050FDBDE8F09F00BF00F042
:1010A0000702064B19684FF6FF031940044B0B4328
:1010B00043EA0221014B196000BF70470CED00E0CC
:1010C0000000FA05F8B5044600260025207800F057
:1010D000010000286BD000274348C06900F0805011
:1010E00070B900BF4048C06940F080503E49C861B7
:1010F0000846C06900F08050009000BF00BF012783
:101100003A48006800F48070B0B93848006840F48C
:10111000807036490860FFF7FDFE064606E0FFF7DF
:10112000F9FE801B642801D90320F8BD2F48006810
:1011300000F480700028F2D02B48006A00F440755B
:101140002DB3A08800F44070A84220D02648006A41
:1011500020F44075012026490860002008602248DC
:10116000056205F0010090B1FFF7D4FE064608E0E5
:10117000FFF7D0FE801B41F28831884201D903205D
:10118000D3E71948006A00F002000028F0D01648A2
:10119000006A20F440706168084313490862012F17
:1011A00004D10846C06920F08050C86100BF207893
:1011B00000F00200022807D10B48406820F44040AC
:1011C000A168084308494860207800F01000102802
:1011D00007D10548406820F48000E16808430249CF
:1011E00048600020A1E700000010024000700040AD
:1011F0004004424270B504460D460CB9012070BD52
:101200005A48006800F00700A8420ED2574800680C
:1012100020F007002843554908600846006800F0A0
:101220000700A84201D00120E9E7207800F0020081
:1012300002281DD1207800F00400042805D14C4874
:10124000406840F4E0604A494860207800F00800B7
:10125000082805D14648406840F460504449486039
:101260004348406820F0F000A168084340494860C6
:10127000207800F0010078B36068012806D13C486E
:10128000006800F4003090B90120B8E760680228D7
:1012900006D13748006800F0007040B90120AEE781
:1012A0003348006800F0020008B90120A7E7304881
:1012B000406820F00300616808432D494860FFF74B
:1012C00029FE064609E0FFF725FE801B41F2883122
:1012D000884202D9032092E707E02548406800F0E1
:1012E0000C006168B0EB810FEDD12048006800F080
:1012F0000700A8420ED91D48006820F007002843C7
:101300001A4908600846006800F00700A84201D0AA
:10131000012074E7207800F00400042807D1144865
:10132000406820F4E060E168084311494860207893
:1013300000F00800082808D10D48406820F46050EB
:10134000216940EAC1000A49486000F03FF80849B5
:101350004968C1F30311074A515CC8400649086057
:1013600006480068FFF7FCFD002048E70020024027
:1013700000100240C82C0008140000200C000020BF
:1013800001480068704700001400002000B5FFF716
:10139000F7FF04494968C1F30221034A515CC84080
:1013A00000BD000000100240D82C000800B5FFF777
:1013B000E7FF04494968C1F3C221034A515CC840B0
:1013C00000BD000000100240D82C0008F0B585B028
:1013D0000FF26C0C9CE8E01001A8A0E8E0101CA53E
:1013E0002D68009500210022002300240020194DC3
:1013F000696801F00C05F5B1042D02D0082D19D152
:1014000001E0154819E001ADC1F38346AC5D01F47C
:10141000803555B10F4D6D68C5F340451DF8052069
:101420000D4D6543B5FBF2F302E00C4D04FB05F3F3
:10143000184602E000BF084800BF00BF05B0F0BD7D
:1014400002030405060708090A0B0C0D0E0F101005
:10145000010200000010024000127A0000093D0065
:10146000F8B504460CB90120F8BD207800F0010061
:10147000002878D0F848406800F00C0004280CD010
:10148000F548406800F00C00082811D1F248406887
:1014900000F48030B0F5803F0AD1EF48006800F4D6
:1014A000003000285FD0606800285CD10120DBE7B5
:1014B00000BF6068B0F5803F06D1E748006840F49F
:1014C0008030E549086028E0606858B9E248006863
:1014D00020F48030E04908600846006820F480204D
:1014E00008601AE06068B0F5A02F0BD1DA480068F8
:1014F00040F48020D84908600846006840F48030F5
:1015000008600AE0D448006820F48030D2490860BE
:101510000846006820F48020086000BF606888B139
:10152000FFF7F8FC054606E0FFF7F4FC401B6428D3
:1015300001D9032098E7C848006800F4003000286B
:10154000F2D010E0FFF7E6FC054606E0FFF7E2FC0C
:10155000401B642801D9032086E7BF48006800F4D7
:1015600000300028F2D1207800F00200022857D184
:10157000B948406800F00C0050B1B748406800F02E
:101580000C00082818D1B448406800F4803098B99D
:10159000B148006800F0020020B12069012801D0A4
:1015A000012061E7AC48006820F0F800616940EA7A
:1015B000C100A949086033E02069E8B10120A749CA
:1015C0000860FFF7A7FC054606E0FFF7A3FC401BF9
:1015D000022801D9032047E79F48006800F0020075
:1015E0000028F2D09C48006820F0F800616940EAC9
:1015F000C1009949086013E0002098490860FFF78E
:1016000089FC054606E0FFF785FC401B022801D94E
:10161000032029E79048006800F002000028F2D17A
:10162000207800F0080008282DD1A069B8B1012069
:101630008B490860FFF76EFC054606E0FFF76AFC81
:10164000401B022801D903200EE78348406A00F0BE
:1016500002000028F2D0012000F06CFF13E000200F
:101660007F490860FFF756FC054606E0FFF752FC8D
:10167000401B022801D90320F6E67748406A00F0B3
:1016800002000028F2D1207800F00400042873D171
:1016900000277148C06900F0805070B900BF6E48E3
:1016A000C06940F080506C49C8610846C06900F0CC
:1016B0008050009000BF00BF01276A48006800F416
:1016C0008070B0B96748006840F480706549086070
:1016D000FFF720FC054606E0FFF71CFC401B6428D2
:1016E00001D90320C0E65F48006800F4807000283C
:1016F000F2D000BFE068012806D15748006A40F0E8
:1017000001005549086227E0E06858B95248006A6C
:1017100020F00100504908620846006A20F00400E9
:10172000086219E0E06805280BD14B48006A40F0D8
:101730000400494908620846006A40F00100086256
:101740000AE04548006A20F0010043490862084663
:10175000006A20F00400086200BFE068A0B1FFF753
:10176000D9FB054609E0FFF7D5FB401B41F2883164
:10177000884202D9032077E622E03748006A00F069
:1017800002000028EFD012E0FFF7C4FB054608E096
:10179000FFF7C0FB401B41F28831884201D903208A
:1017A00062E62D48006A00F002000028F0D1012F07
:1017B00005D12948C06920F080502749C86100BF81
:1017C000E069C8B32448406800F00C00082860D0E5
:1017D000E069022848D1002020490866FFF79AFBFB
:1017E000054606E0FFF796FB401B022801D90320BF
:1017F0003AE61948006800F000700028F2D1206A2B
:10180000B0F5803F07D11448406820F40030A1684B
:10181000084311494860D4E9080108430E49496862
:1018200021F4741108430C49486001200B490866F3
:10183000FFF770FB054607E03DE0FFF76BFB401B41
:10184000022801D903200FE60348006800F0007069
:101850000028F2D02FE000000010024000004242B9
:101860008004424200700040002014490866FFF7DF
:1018700051FB054606E0FFF74DFB401B022801D94E
:101880000320F1E50E48006800F000700028F2D156
:1018900011E0E069012800D1E6E50948466806F450
:1018A0008031206A814204D106F47011606A81425D
:1018B00001D00120D8E50020D6E50000000042421A
:1018C0000010024070B504462546681EB0F1807FC6
:1018D00001D301200FE0681E4FF0E02148610F2185
:1018E0004FF0FF3001F028F900204FF0E02188612F
:1018F00007200861002070BD10B50346002200BF1C
:1019000093F83C00012801D1022010BD012083F88A
:101910003C0000BF22F0FF00CC6840EA040222F441
:1019200040708C6840EA040222F480604C6840EA0F
:10193000040222F400600C6840EA040222F48050A1
:101940000C6940EA040222F400504C6940EA0402A7
:1019500022F48040CC6940EA04021868426400BF67
:10196000002083F83C0000BF00BFCEE730B5024640
:101970000B4600BF92F83C00012801D1022030BD87
:10198000012082F83C0000BF022082F83D00106870
:1019900044681068816824F0700418680443106873
:1019A00044600E4D1068A84207D01068B0F1804F17
:1019B00003D00B4D1068A84205D121F08001586872
:1019C000014310688160012082F83D0000BF0020C3
:1019D00082F83C0000BF00BFD1E70000002C0140AE
:1019E0000004004010B586B0044600200290039029
:1019F000049005900E492068884216D100BF0D481A
:101A0000806940F004000B4988610846806900F055
:101A10000400019000BF00BF48150290022003900F
:101A2000059002A90448FFF7E9F806B010BD0000D0
:101A3000002C0140001002400008014070B504462F
:101A40000D46164600BF94F83C00012801D1022043
:101A500070BD012084F83C0000BF36B1042E1BD0BD
:101A6000082E31D00C2E5ED145E02946206800F0CA
:101A700001FE2068806940F00800216888612068C4
:101A8000806920F0040021688861206880692969E4
:101A900008432168886147E02946206800F01AFE63
:101AA0002068806940F4006021688861206880694E
:101AB00020F480602168886120688069296940EA93
:101AC0000120216888612FE02946206800F036FE59
:101AD0002068C06940F008002168C8612068C069BA
:101AE00020F004002168C8612068C06929690843A2
:101AF0002168C86118E02946206800F053FE20687C
:101B0000C06940F400602168C8612068C06920F4A1
:101B100080602168C8612068C069296940EA0120A5
:101B20002168C86100E000BF00BF00BF002084F84A
:101B30003C0000BF00BF8BE710B504460CB9012084
:101B400010BD94F83D0028B9002084F83C002046E0
:101B500000F026F8022084F83D00211D206800F0E6
:101B600045FD012084F8460000BF84F83E000121B5
:101B70003F200155402001554120015500BF00BFC5
:101B8000012084F84200432001554420015545209E
:101B9000015500BF012084F83D000020D0E700007F
:101BA00008B5094A016891420DD100BF074989690A
:101BB00041F40061054A91611146896901F40061AF
:101BC000009100BF00BF08BD002C01400010024082
:101BD00070B504460D4615B994F83E000BE0042D8F
:101BE00002D13F20005D06E0082D02D14020005DBB
:101BF00001E04120005D012801D0012070BD1DB928
:101C0000022084F83E000EE0042D03D102213F2083
:101C1000015508E0082D03D102214020015502E0C2
:101C200002214120015501222946206800F010FDC3
:101C300017492068884201D1012000E0002028B126
:101C40002068406C40F400402168486410492068D6
:101C5000884207D02068B0F1804F03D00D4920683A
:101C600088420CD12068806800F00706062E0CD050
:101C70002068006840F001002168086005E02068E5
:101C8000006840F00100216808600020B6E700000D
:101C9000002C014000040040704770472DE9F84FC8
:101CA0000446206805682068C668206847694FF0C8
:101CB0000009CA4605F00F09B9F1000F0AD105F075
:101CC000200038B106F0200020B1204600F0C3FD0E
:101CD000BDE8F88FB9F1000F71D007F0010018B915
:101CE00006F4907000286AD005F0010030B106F4C7
:101CF000807018B1206C40F00100206405F00400F1
:101D000030B107F0010018B1206C40F002002064EF
:101D100005F0020030B107F0010018B1206C40F06E
:101D20000400206405F0080048B106F0200010B956
:101D300007F0010018B1206C40F008002064206C0E
:101D400068B305F0200028B106F0200010B120464D
:101D500000F081FD20684069C0F3801A206C00F01B
:101D6000080010B9BAF1000F22D0204600F048FD5B
:101D70002068406900F04000B0B12068406920F060
:101D8000400021684861A06B50B15648A16B486380
:101D9000A06BFEF7C7FE10B1A06B416B88470CE04B
:101DA0002046FFF77AFF08E02046FFF776FF04E0C1
:101DB0002046FFF772FF0020206489E7FFE7206BD1
:101DC000012878D105F01000002874D006F010002A
:101DD000002870D000BF00200090206800680090AC
:101DE00020684068009000BF00BF2068406900F094
:101DF0004000C0B3A06B006840681FFA80F8B8F1DB
:101E0000000F2FD0A08D40452CDDA4F82E80A06BB4
:101E1000806920281FD02068C06820F48070216865
:101E2000C8602068406920F001002168486120688E
:101E3000406920F0400021684861202084F83E007D
:101E4000002020632068C06820F010002168C8606E
:101E5000A06BFEF73BFEA08DE28D801A81B220467A
:101E6000FFF71AFF34E7FFE7A08DE18D401A1FFA54
:101E700080F8E08DE8B1B8F1000F1AD02068C06892
:101E800020F490702168C8602068406920F001004B
:101E900021684861202084F83E00002020632068EB
:101EA000C06820F010002168C86041462046FFF756
:101EB000F3FE0DE7FFE705F0800030B106F080008B
:101EC00018B1204600F0B8FD02E705F0400030B13F
:101ED00006F0400018B1204600F0ADFCF8E600BF67
:101EE000F6E60000ED27000810B504460CB9012005
:101EF00010BDA06900B100E000BF94F83D0028B912
:101F0000002084F83C00204600F028F8242084F8C3
:101F10003D002068C06820F400502168C860204659
:101F200000F00CFD2068006920F4904021680861F1
:101F30002068406920F02A00216848612068C06854
:101F400040F400502168C86000202064202084F8FC
:101F50003D0084F83E000020CAE7000010B586B0BE
:101F60000446002002900390049005901E492068CA
:101F7000884236D100BF1D48C06940F400301B497B
:101F8000C8610846C06900F40030019000BF00BF7E
:101F900000BF0846806940F00400886108468069F7
:101FA00000F00400019000BF00BF04200290022056
:101FB00003900320059002A90D48FEF71FFE08209C
:101FC0000290002003900120049002A90848FEF727
:101FD00015FE002211462620FFF722F82620FFF7E3
:101FE0000FF806B010BD0000004400400010024091
:101FF0000008014070472DE9F84F04460E46174689
:1020000099464FF0000A94F83D0020285AD106B1B5
:1020100017B90120BDE8F88F00BF94F83C000128F3
:1020200001D10220F6E7012084F83C0000BF002027
:102030002064212084F83D00FEF76CFF8246A784CF
:10204000E784A068B0F5805F04D1206910B900254D
:10205000B04602E035464FF0000800BF002084F88B
:102060003C0000BF1BE05346002280212046CDF8F3
:10207000009000F011FD08B10320CBE745B9B8F896
:102080000000C0F308002168486008F1020803E07E
:102090002878216848606D1CE08C401EE084E08C4C
:1020A0000028E0D15346002240212046CDF8009080
:1020B00000F0F2FC08B10320ACE7202084F83D00DA
:1020C0000020A7E70220A5E7704700BFFEE710B594
:1020D000012000F005F8052000F050F810BD0000C8
:1020E00010B50446002208210948FEF70DFF002222
:1020F00010210748FEF708FF05480C30006864F31C
:102100001F2003490C31086000F07EF810BD00006C
:10211000000C014038B505460C4609A00068009047
:10212000022C00DB00240748C57004711DF8041060
:102130002944C9B241F08000FFF7D2FF38BD00004A
:10214000004014541800002010B504460122082154
:102150000948FEF7D9FE002210210748FEF7D4FEF9
:1021600005480C30006864F31F2003490C310860F7
:1021700000F04AF810BD0000000C014010B5044604
:102180002046FEF727FD10BD2DE9F04104464FF033
:10219000E0204069401C4FF47A71B0FBF1F54FF03C
:1021A000E0208069B0FBF5F0C0F57A77FEF7B2FE6B
:1021B00000EB4001C1EBC01007EBC00600BF4FF0C1
:1021C000E0208069B0FBF5F0C0F57A77FEF7A2FE5B
:1021D00000EB4001C1EBC01007EBC000801BA04228
:1021E000EDD3BDE8F081000010B50648007840F05E
:1021F000040004490870097841F00800FFF770FFF7
:1022000010BD00001800002010B501222021074851
:10221000FEF77AFE3220FFF7B7FF002220210348A5
:10222000FEF772FE3220FFF7AFFF10BD000C014039
:1022300010B500201049C870087110204870084679
:10224000407840F008004870497841F02000FFF7DE
:1022500047FF042008490870FFF7C6FF022006491F
:102260008870897841F00400FFF73AFFFFF72FFFED
:102270000520FFF783FF10BD1800002070B505464C
:102280000E46144631462846FFF744FF2046FFF726
:102290005BFF70BD70B505460E46144631462846B4
:1022A000FFF738FF2FE01A48C07810280BDB00201A
:1022B0001749C87008460079401C08710A46117910
:1022C000D078FFF727FF20780A280AD11048007934
:1022D000401C0F4908710A461179D078FFF71AFFA0
:1022E00010E020780D2805D1094801790020FFF77A
:1022F00011FF07E02078FFF727FF0548C078401C52
:102300000349C870641C20780028CCD170BD00003F
:102310001800002070B505460E4614463146284682
:10232000FFF7F8FE04F13000C2B231462846FFF74D
:10233000A5FF70BD0EB500200090019002901348DB
:1023400013490860002112488160012101730021B6
:1023500001754FF46021C16100200D4948600121E1
:102360000B480161FEF736FA08B1FEF7E8F80B20DA
:102370000090012001900020029069460448FEF779
:10238000E3F808B1FEF7DBF80EBD000000240140C1
:102390002400002000B585B0002001900290039039
:1023A000049000BF2348806940F0200021498861E3
:1023B0000846806900F02000009000BF00BF00BF09
:1023C0000846806940F0100088610846806900F086
:1023D0001000009000BF00BF00BF0846806940F0B9
:1023E000040088610846806900F00400009000BF86
:1023F00000BF00BF0846806940F0080088610846B9
:10240000806900F00800009000BF00BF00224FF676
:1024100038710948FEF778FD4FF6387001900120B9
:10242000029003900320049001A90348FEF7E6FB05
:1024300005B000BD00100240000C014000B591B095
:1024400000200F9010901C2108A8FDF782FE20218B
:102450006846FDF77EFE244824490860472048600E
:102460000021224881604FF47A71C160002101612E
:10247000416180218161FFF75FFB08B1FEF75FF8E2
:1024800000200F9010900FA91848FFF76FFA08B1BD
:10249000FEF755F8702008904FF4FA70099000206C
:1024A0000A900B900C900D900E90042208A90F48F2
:1024B000FFF7C4FA08B1FEF742F80020009001903F
:1024C0000290039004904FF4005005900020079074
:1024D00069460648FFF710FA08B1FEF730F80348DE
:1024E000FFF780FA11B000BD002C0140540000201D
:1024F00010B50B480B4908604FF416504860002196
:1025000008488160C16001610C2141610021816145
:10251000C161FFF7E9FC08B1FEF711F810BD00003A
:10252000004400409C00002000BFFEE700BFFEE723
:102530007047000008B508490968C9084FF47A7265
:10254000B1FBF2F14143009100BF00BF00994A1E68
:1025500000920029F9D108BD14000020704710B581
:10256000FEF7DEFC10BD00B593B0282109A8FDF7E9
:10257000F0FD142104A8FDF7ECFD0020009001906F
:10258000029003900120099000040A9000200B9013
:1025900001200D9002201090C10311914FF4E01121
:1025A000129109A8FEF75CFF08B1FDF7C8FF0F20E4
:1025B000049002200590002006904FF48060079060
:1025C00000200890022104A8FEF714FE08B1FDF7D0
:1025D000B6FF02200090800302906846FEF772FD6D
:1025E00008B1FDF7ACFF13B000BD704710B502682D
:1025F000154B984205D0B0F1804F02D0134B984252
:1026000003D122F070024B681A430F4B984205D059
:10261000B0F1804F02D00D4B984203D122F44072AA
:10262000CB681A4322F080034C6943EA040202603B
:102630008B68C3620B688362034B984201D10B69BC
:1026400003630123436110BD002C014000040040DE
:1026500030B501F01F05012404FA05F3046A9C4318
:102660000462046A01F01F0502FA05F52C430462B6
:1026700030BD000030B5056A25F001050562026A2B
:102680004368846924F0700424F003040D682C432B
:1026900022F002028D682A430D4DA84206D100BFE8
:1026A00022F00802CD682A4322F00402084DA84215
:1026B00007D123F4807323F400734D692B438D6994
:1026C0002B43436084614D684563026230BD000066
:1026D000002C014030B5056A25F010050562026A3C
:1026E0004368846924F4E04424F440740D6844EAA7
:1026F000052422F020028D6842EA05120E4DA84200
:1027000007D100BF22F08002CD6842EA051222F014
:102710004002094DA84209D123F4806323F40063E9
:102720004D6943EA85038D6943EA8503436084610B
:102730004D688563026230BD002C014030B5056AEA
:1027400025F480750562026A4368C46924F0700448
:1027500024F003040D682C4322F400728D6842EAD1
:1027600005220F4DA84207D100BF22F40062CD68B8
:1027700042EA052222F48062094DA84209D123F4DD
:10278000805323F400534D6943EA05138D6943EAEE
:1027900005134360C4614D68C563026230BD00002B
:1027A000002C014030B5056A25F480550562036AA6
:1027B0004468C26922F4E04222F440720D6842EAA1
:1027C000052223F400538D6843EA0533064DA842E1
:1027D00004D124F480444D6944EA85144460C26104
:1027E0004D680564036230BD002C014070B505469C
:1027F0006C6A0020E085E0842046FFF74EFA70BD49
:102800000168C96821F490710268D1600168496962
:1028100021F0010102685161016B012905D10168B4
:10282000C96821F010010268D160202180F83E10B3
:1028300000210163704710B504462068C06820F08D
:1028400040002168C860202084F83D002046FFF742
:102850003BFC002010BDF8B5044694F83E00222849
:1028600069D1A068B0F5805F0CD1206950B900250E
:10287000A66A20684068C0F308003080A06A801C07
:10288000A06215E0A56A0026A068B0F5805F03D0BD
:10289000A06828B9206918B920684068287004E049
:1028A0002068406800F07F002870A06A401CA06289
:1028B000E08D401E80B2E085A8BB2068C06820F093
:1028C00020002168C8602068C06820F480702168FA
:1028D000C8602068406920F001002168486120201C
:1028E00084F83E00206B01281ED100202063206860
:1028F000C06820F010002168C8602068006800F0FF
:10290000100010280AD100BF002000902068006845
:10291000009020684068009000BF00BFA18D204655
:10292000FFF7BAF903E004E02046FFF763FB00205D
:10293000F8BD0020FCE70220FAE7000070B504466D
:102940002168096921F44051E2681143226811614C
:102950002269A1681143626941EA02052168C968D8
:1029600041F20C62914329432268D1602168496990
:1029700021F44071A2691143226851612D4A2168F6
:10298000914202D1FEF712FD01E0FEF7FFFC00EBE1
:10299000C00101EB001162689200B1FBF2F100EBA3
:1029A000C00202EB001263689B00B2FBF3F26423E7
:1029B000B2FBF3F202EBC20303EB0212A1EB8201C2
:1029C000322202EB01116422B1FBF2F101F0F001BD
:1029D00000EBC00202EB001263689B00B2FBF3F253
:1029E0006423B2FBF3F201EB021200EBC00101EB36
:1029F000001163689B00B1FBF3F100EBC00303EB34
:102A000000136668B600B3FBF6F36426B3FBF6F377
:102A100003EBC30606EB0313A1EB8301322303EBA5
:102A200001116423B1FBF3F101F00F01114422689D
:102A3000916070BD00380140014691F83D002128A9
:102A400028D18868B0F5805F0BD1086948B90A6A57
:102A50001088C0F308000B685860086A801C086280
:102A600005E00B6A581C086218780B685860C88C1F
:102A7000401E80B2C88458B90868C06820F0800041
:102A80000B68D8600868C06840F040000B68D860E8
:102A9000002070470220FCE72DE9F04104460D4676
:102AA00017469846069E21E0701CF8B12EB1FEF73D
:102AB00031FAA0EB0800B04218D92068C06820F4B1
:102AC000D0702168C8602068406920F0010021684A
:102AD0004861202084F83D0084F83E0000BF0020BB
:102AE00084F83C0000BF0320BDE8F0812068006846
:102AF0002840A84201D1012000E00020B842D3D0F4
:102B00000020F1E710B50248FFF7C8F810BD00003B
:102B10009C00002000BFFEE7014A024900F02FB8E8
:102B2000A12B00082000002002480068C0F302200A
:102B3000704700000CED00E010B5002804DB0A0728
:102B4000130E054A135406E00A07140E034A00F058
:102B50000F031B1FD45410BD00E400E018ED00E08B
:102B600002E008C8121F08C1002AFAD17047704756
:102B7000002001E001C1121F002AFBD170472DE99E
:102B8000F04116460F460446002503E03946B0479B
:102B9000641C6D1C20780028F8D12846BDE8F0811F
:102BA00038B504460D46E0B200900523012269467F
:102BB0000248FFF720FA204638BD00009C000020A4
:102BC0001CB500BF00BF00BFFEF7B6F9FFF7CBFC96
:102BD000FFF7E0FBFFF78CFCFFF7ACFBFFF72EFCE9
:102BE0002B48FDF7DBFE04212A48FEF7F1FFFFF733
:102BF0001FFB29A0FFF790FF3220FDF7EBFF45E018
:102C00000520FDF7E7FF2248FDF74FFD05B22846F6
:102C1000FDF71CFB07460022254BFDF7A5FACDE981
:102C20000001FDF738FB2349086008460068FDF7FE
:102C30001EFB84B20A20FDF7CDFF1FA20021022057
:102C4000FFF728FB4FF47A7094FBF0F6642094FBB6
:102C5000F0F00A2190FBF1F201FB120A0A2094FB2A
:102C6000F0F090FBF1F201FB1209F2B200210B200F
:102C7000FFF750FB0AF0FF0200210D20FFF74AFB8F
:102C800009F0FF0200210E20FFF744FBB8E7000027
:102C900024000020540000200D0A20313131313150
:102CA000313131312020D5C5C8FD200D0A0000008A
:102CB0000088F33F0400002061646376616C7565F1
:102CC0003D302E30305600000000000000000000B3
:102CD00001020304060708090000000001020304C2
:102CE000002D00080000002024000000602B0008D8
:102CF000242D000824000020BC040000702B0008D4
:102D000000000000000000000000000010000000B3
:102D1000010000000024F40000000000000000009A
:042D200000000000AF
:04000005080000ED02
:00000001FF
